:100000000C9435000C945D000C945D000C945D0024
:100010000C945D000C945D000C945D000C945D00EC
:100020000C945D000C945D000C945D000C945D00DC
:100030000C945D000C945D000C945D000C945D00CC
:100040000C94CE080C945D000C943E090C94180995
:100050000C945D000C945D000C945D000C945D00AC
:100060000C945D000C945D007E0A11241FBECFEF3E
:10007000D8E0DEBFCDBF11E0A0E0B1E0E6E9F9E1F4
:1000800002C005900D92A23BB107D9F722E0A2EB86
:10009000B1E001C01D92A835B207E1F710E0C5E359
:1000A000D0E004C02197FE010E94A60CC433D10702
:1000B000C9F70E9470090C94C90C0C940000FC0153
:1000C00086819781680F791F24813581261737072C
:1000D00038F022813381820F931F778366830895DE
:1000E00090E080E00895DC01ED91FC910190F081B9
:1000F000E02D0994AF92BF92CF92DF92EF92FF92E0
:100100000F931F93CF93DF936C017B018B01040F3F
:10011000151FEB015E01AE18BF08C017D10759F0DB
:100120006991D601ED91FC910190F081E02DC6011D
:100130000995892B79F7C501DF91CF911F910F9117
:10014000FF90EF90DF90CF90BF90AF900895FC01AB
:10015000538D448D252F30E0842F90E0821B930B2C
:10016000541710F0CF96089501970895FC01918DD2
:10017000828D981761F0A28DAE0FBF2FB11D5D96D5
:100180008C91928D9F5F9F73928F90E008958FEF77
:100190009FEF0895FC01918D828D981731F0828D2B
:1001A000E80FF11D858D90E008958FEF9FEF089582
:1001B000FC01918D228D892F90E0805C9F4F821BE6
:1001C00091098F739927089582EB91E00E94D800DE
:1001D00021E0892B09F420E0822F089580E090E04F
:1001E000892B29F00E94E40081110C9400000895ED
:1001F000FC01A48DA80FB92FB11DA35ABF4F2C919C
:10020000848D90E001968F739927848FA689B78992
:100210002C93A089B1898C91837080648C93938D89
:10022000848D981306C00288F389E02D80818F7D2C
:1002300080830895EF92FF920F931F93CF93DF93E4
:10024000EC0181E0888F9B8D8C8D98131AC0E88912
:10025000F989808185FF15C09FB7F894EE89FF89E1
:100260006083E889F98980818370806480839FBF7F
:1002700081E090E0DF91CF911F910F91FF90EF907F
:100280000895F62E0B8D10E00F5F1F4F0F7311278F
:10029000E02E8C8D8E110CC00FB607FCFACFE889CA
:1002A000F989808185FFF5CFCE010E94F800F1CF5A
:1002B000EB8DEC0FFD2FF11DE35AFF4FF0829FB73E
:1002C000F8940B8FEA89FB8980818062CFCFCF932E
:1002D000DF93EC01888D8823B9F0AA89BB89E8896E
:1002E000F9898C9185FD03C0808186FD0DC00FB614
:1002F00007FCF7CF8C9185FFF2CF808185FFEDCF92
:10030000CE010E94F800E9CFDF91CF910895DF92EE
:10031000EF92FF920F931F93CF93DF93EC01D62EB2
:100320008A8110E000E087FF1BC0F12CE12C10E077
:1003300000E0488159819A81292F2F7092959770FA
:10034000299F90011124E216F30654F460E2CA01D9
:100350000E947300080F191F8FEFE81AF80AE9CFFF
:100360006D2D888199810E947300AC0121E08AE0A3
:10037000D81220E09A8120FB97F99A83C801840F54
:10038000951FDF91CF911F910F91FF90EF90DF901C
:100390000895EF92FF920F931F93CF93DF937C0109
:1003A0008B01D0E0C0E0F80161918F01662331F04C
:1003B000C7010E948701C80FD91FF5CFCE01DF9179
:1003C000CF911F910F91FF90EF900895FC019081C4
:1003D0009F7D9B3591F40180F281E02D9281292F40
:1003E0002F702F3029F02F5F2F70907F922B9283E8
:1003F00064E671E0CF010C94C90190E080E00895BB
:10040000FF920F931F93CF93DF936A33D1F1F62EB0
:10041000EC018AE38617C4F0E2E26E1709F442C0E9
:10042000FCE26F17D1F1CE010E94E6018C016F2D25
:1004300089819A810E948701800F911FDF91CF915E
:100440001F910F91FF9008958DE5681719F0EDE762
:100450006E13E9CF88818F7D10E000E08B3539F392
:10046000E981FA819281292F2F7029F0215F2F7065
:10047000907F922B928364E671E0CF010E94C901C4
:10048000D5CF60E671E0FC0181819281DF91CF914F
:100490001F910F91FF900C94C90163E671E089816F
:1004A0009A81F4CF81E08B83CE010E94E6018C011A
:1004B00062E2BECFAF92BF92CF92DF92EF92FF92F5
:1004C0001F93CF93DF936C01FC01C081D1817B012D
:1004D000B12CA12CF70111917F011123B9F08B816F
:1004E000882379F0123221F488818C3509F01B823F
:1004F000612F89819A810E9487011883A80EB91EF5
:10050000E9CF612FCE010E940002F7CFF601828170
:1005100093818A0D9B1D93838283DF91CF911F91DD
:10052000FF90EF90DF90CF90BF90AF9008950F9322
:100530001F93CF93DF93CDB7DEB766970FB6F894CE
:10054000DEBF0FBECDBF9C01CB011E8AFE01769699
:100550000AE010E0B8010E94700C805D8293CB012C
:100560000097C1F7BF01C9010E945A0266960FB6F3
:10057000F894DEBF0FBECDBFDF91CF911F910F91D9
:100580000895EF92FF921F93CF93DF937C01162F74
:10059000FC01C081D1818B818823C9F0623221F4B2
:1005A00088818C3509F01B82612F89819A810E9494
:1005B00087011883F70122813381820F931F938370
:1005C0008283DF91CF911F91FF90EF900895CE012C
:1005D0000E940002EECFFF920F931F93CF93DF9301
:1005E0006115710549F466E771E0DF91CF911F91C4
:1005F0000F91FF900C945A028B01EC0162E2CE0144
:100600000E94C102F80161918F01662351F0E7E673
:10061000F1E0F080FF2099F38181681759F032965C
:10062000F8CF62E2CE01DF91CF911F910F91FF9041
:100630000C94C1026CE5CE010E94C1026F2DDFCF88
:100640002F923F924F925F926F927F928F929F92E2
:10065000AF92BF92CF92DF92EF92FF920F931F93D0
:10066000CF93DF9300D000D0CDB7DEB71C014A0195
:100670005B0186E0D1011A968C9320E836E948E1C7
:100680005BE4CB01B4010E94FE0B87FD86C058E4F9
:10069000652E51E0752E68E1E62E61E0F62E70E3DE
:1006A000C72E71E0D72EE0E2F0E0FA83E98310E094
:1006B00000E0A5019401D3019E918E917E916E91EF
:1006C0003D010E94180B18167CF0F701248935892A
:1006D00046895789C501B4010E94030C4B015C0196
:1006E00089819A81080F191FA981BA81B595A795AB
:1006F000BA83A983B4E0EB1AF108C614D704C9F68B
:1007000077247A9420E030E0A901C501B4010E9469
:10071000FE0B18160CF04AC02CEA35EC47E257E302
:10072000C501B4010E94180B18160CF43FC0F72D38
:1007300084E0F80260011124F12CE12C9FEF79167E
:10074000A9F126014E0C5F1CF201E050FF4FA501FC
:10075000940160817181828193810E94FE0B181641
:100760008CF4F201E05DFE4F2081318142815381A2
:10077000C501B4010E94030C4B015C01A981BA813F
:100780000A1B1B0BE981FA81F595E795FA83E9834A
:100790007A94F4E0EF1AF108D1CFE0E2F0E0FA83C6
:1007A000E98335E0732E10E000E0ACCFD10119965B
:1007B0001C930E931897C501B4010E941D0B698309
:1007C0007A838B839C83F10160837183828393831B
:1007D0002B013C0190E4C92E92E4D92E9FE0E92E32
:1007E000F12CFAE04F16510461047104E0F0C701E6
:1007F000B6012AE030E040E050E00E94840C69013C
:100800007A01D1011A968C911A9781501A968C937D
:10081000C301B2012AE030E040E050E00E94840CC5
:1008200029013A01DECF69817A818B819C810E9406
:100830004C0B9B01AC01C501B4010E94AB0A4B01FA
:100840005C01C701B6010E944C0B9B01AC01C501C4
:10085000B4010E94030C2B013C010E941D0B4B01B3
:100860005C010E944C0B9B01AC01C301B2010E94D0
:10087000AB0A9B01AC010E94AC0A0E941D0B860EC4
:10088000971EA81EB91E8C149D04AE04BF0420F54B
:10089000F10184829582A682B7828AE0C82ED12C8B
:1008A000E12CF12CD10114966D917D918D919C914B
:1008B0001797A70196010E94840C672B682B692B60
:1008C00091F5F1018285181674F5248335834683EA
:1008D000578381508287E6CFD10114961D921D92D5
:1008E0001D921C92179789819A81AB81BC810196D8
:1008F000A11DB11DF10180839183A283B3830115F2
:10090000110559F20A97A105B10538F2C8010196FF
:100910009187808781E090E0A0E0B0E080839183C0
:10092000A283B383BACF0F900F900F900F90DF91F7
:10093000CF911F910F91FF90EF90DF90CF90BF90DC
:10094000AF909F908F907F906F905F904F903F906F
:100950002F9008950F931F93CF93DF938C01EB019A
:100960006BE7CE010E94C102F801028113810115DB
:100970001105D1F0F80162817381CE010E94EB0272
:100980006AE3CE010E94C102BE01C80104960E9422
:10099000DC04F801008111810115110529F06CE2D8
:1009A000CE010E94C102E3CF6DE7CE01DF91CF916E
:1009B0001F910F910C94C1024F925F926F927F92A0
:1009C000AF92BF92CF92DF92EF92FF920F931F935D
:1009D000CF93DF93CDB7DEB7A1970FB6F894DEBF04
:1009E0000FBECDBFDC01ED91FC913197E830F105F0
:1009F00008F0C0C08B017C01E050FB4F0C94A60CAA
:100A00000006F9052C060C060806CF05F2050805B8
:100A1000FC01C280D380E480F580A7019601C70164
:100A2000B6010E94180B66E871E08111EDC020E06C
:100A300030E0A901C701B6010E94180B87FF08C06A
:100A40006DE2C8010E94C102F7FAF094F7F8F09441
:100A500020E030E0A901C701B6010E94180B8823ED
:100A600089F0A7019601C701B6010E94AC0A9B015B
:100A7000AC01C701B6010E94180B6AE871E0882337
:100A800009F4C2C0B701A601CE0147960E94200317
:100A90006F89788D898D9A8D1E8A7E01F6E1EF0E21
:100AA000F11C4AE0442E512C612C712CA3019201BF
:100AB0000E94840C605DD7016E937D01B901CA016B
:100AC000611571058105910589F7BD01C8010E9475
:100AD0005A02F9A0FF2079F16B8D7C8D8D8D9E8D52
:100AE000188A5E01B0E1AB0EB11CEF2C65013AE053
:100AF000432E512C612C712CEA94EFEFEE1659F035
:100B0000A30192010E94840C605DD5016E935D018A
:100B1000B901CA01F1CF8F2D90E0F601E81BF90B66
:100B200031972EE2208380959095B601680F791F4A
:100B3000C8010E945A028F8D98A197FF0DC063E9EA
:100B400071E0C8010E945A026F8D78A1719561957C
:100B50007109C8010E9497028F8D98A11816190675
:100B60004CF465E6C8010E94C1026F8D78A1C801EE
:100B70000E949702A1960FB6F894DEBF0FBECDBFBC
:100B8000DF91CF911F910F91FF90EF90DF90CF9069
:100B9000BF90AF907F906F905F904F900895FC0151
:100BA000E280F3806BE5C8010E94C102D701129672
:100BB000ED90FC90E114F10481F0B801C7010296B8
:100BC0000E94DC04F701E080F180E114F10429F0D7
:100BD0006CE2C8010E94C102EDCF6DE5C8010E9420
:100BE000C102C8CFDC0112968D919C910E94AA048B
:100BF000C1CFFC0162817381C8010E94EB02BACFB0
:100C0000DC0112966D917C91C8010E945A02B2CF0C
:100C10006DE2C8010E94C102F70162817381848183
:100C200095811E8A7E01F6E1EF0EF11C2AE0422E2C
:100C3000512C612C712CA30192010E94840C605DE7
:100C4000D7016E937D01B901CA0161157105810556
:100C5000910589F7BD01D8CFFC0182819381A481E0
:100C6000B5816BE771E0892B8A2B8B2B69F660E8E5
:100C700071E0CACFCF93DF93EC01888199810E9404
:100C800073002A813B81820F931F9B838A83DF91AC
:100C9000CF910895FB0101900020E9F73197AF0152
:100CA000461B570BDC01ED91FC910280F381E02D96
:100CB0000994CF93DF93EC0190E080E0611571051A
:100CC00021F0888199810E944A062A813B81820F06
:100CD000931F9B838A83DF91CF9108950F931F9376
:100CE000CF93DF93CDB7DEB766970FB6F894DEBF2C
:100CF0000FBECDBF9C01CB011E8AFE0176960AE095
:100D000010E0B8010E94700C805D8293CB010097C7
:100D1000C1F7BF01C9010E94590666960FB6F89443
:100D2000DEBF0FBECDBFDF91CF911F910F91089510
:100D3000FF920F931F93CF93DF936115710549F4D1
:100D400066E771E0DF91CF911F910F91FF900C94B6
:100D500059068B01EC0162E2CE010E943A06F801CD
:100D600061918F01662351F0E7E6F1E0F080FF200A
:100D700099F38181681759F03296F8CF62E2CE017B
:100D8000DF91CF911F910F91FF900C943A066CE583
:100D9000CE010E943A066F2DDFCF0F931F93CF93A2
:100DA000DF938C01EB016BE7CE010E943A06F8015C
:100DB0000281138101151105D1F0F801628173815F
:100DC000CE010E9498066AE3CE010E943A06BE0157
:100DD000C80104960E94FF06F801008111810115E7
:100DE000110529F06CE2CE010E943A06E3CF6DE7CF
:100DF000CE01DF91CF911F910F910C943A064F9243
:100E00005F926F927F92AF92BF92CF92DF92EF92FA
:100E1000FF920F931F93CF93DF93CDB7DEB7A197C8
:100E20000FB6F894DEBF0FBECDBFDC01ED91FC9193
:100E30003197E830F10508F0C0C08B017C01ED5D11
:100E4000F84F0C94A60C23081C084F082F082B08F9
:100E5000F20715082B07FC01C280D380E480F580DF
:100E6000A7019601C701B6010E94180B66E871E060
:100E70008111EDC020E030E0A901C701B6010E9458
:100E8000180B87FF08C06DE2C8010E943A06F7FA06
:100E9000F094F7F8F09420E030E0A901C701B60122
:100EA0000E94180B882389F0A7019601C701B6019B
:100EB0000E94AC0A9B01AC01C701B6010E94180B4D
:100EC0006AE871E0882309F4C2C0B701A601CE0127
:100ED00047960E9420036F89788D898D9A8D1E8A8E
:100EE0007E01F6E1EF0EF11C4AE0442E512C612CFC
:100EF000712CA30192010E94840C605DD7016E9356
:100F00007D01B901CA01611571058105910589F756
:100F1000BD01C8010E945906F9A0FF2079F16B8D2F
:100F20007C8D8D8D9E8D188A5E01B0E1AB0EB11C5B
:100F3000EF2C65013AE0432E512C612C712CEA9480
:100F4000EFEFEE1659F0A30192010E94840C605D50
:100F5000D5016E935D01B901CA01F1CF8F2D90E0EB
:100F6000F601E81BF90B31972EE2208380959095CE
:100F7000B601680F791FC8010E9459068F8D98A18C
:100F800097FF0DC063E971E0C8010E9459066F8D9B
:100F900078A1719561957109C8010E946E068F8DC7
:100FA00098A1181619064CF465E6C8010E943A0685
:100FB0006F8D78A1C8010E946E06A1960FB6F894B5
:100FC000DEBF0FBECDBFDF91CF911F910F91FF907C
:100FD000EF90DF90CF90BF90AF907F906F905F9039
:100FE0004F900895FC01E280F3806BE5C8010E94F8
:100FF0003A06D7011296ED90FC90E114F10481F0CD
:10100000B801C70102960E94FF06F701E080F18057
:10101000E114F10429F06CE2C8010E943A06EDCF18
:101020006DE5C8010E943A06C8CFDC0112968D9189
:101030009C910E94CD06C1CFFC0162817381C801E1
:101040000E949806BACFDC0112966D917C91C8017E
:101050000E945906B2CF6DE2C8010E943A06F7011C
:1010600062817381848195811E8A7E01F6E1EF0E93
:10107000F11C2AE0422E512C612C712CA30192010B
:101080000E94840C605DD7016E937D01B901CA0195
:10109000611571058105910589F7BD01D8CFFC0166
:1010A00082819381A481B5816BE771E0892B8A2BC2
:1010B0008B2B69F660E871E0CACFCF92DF92EF9296
:1010C000FF920F931F93CF93DF938C017B016A01F3
:1010D000DC011296CD91DC91209709F43FC06A8122
:1010E0007B816115710529F0C7010E94C00C892B15
:1010F00081F00990D881C02DEFCFFC0180819181D2
:101100000097D9F7D183C08380E02097A1F0FB82BC
:10111000EA82D6018D919C9197FD16C0092E000C94
:10112000AA0BBB0B24E030E03D832C838E839F838E
:10113000A887B98781E0DF91CF911F910F91FF9030
:10114000EF90DF90CF900895919581959109092EA8
:10115000000CAA0BBB0B25E030E0E6CFF801808144
:101160009181009781F0DC01ED91FC910190F0817B
:10117000E02D6AE070E00995EC01892B21F01982DD
:1011800018821D821C82D8011296ED91FC91309735
:1011900009F0B4CFF801D383C283B6CF1F920F9268
:1011A0000FB60F9211242F933F938F939F93AF937A
:1011B000BF938091540290915502A0915602B09134
:1011C00057023091530223E0230F2D3758F5019633
:1011D000A11DB11D20935302809354029093550298
:1011E000A0935602B093570280914F029091500203
:1011F000A0915102B09152020196A11DB11D8093A0
:101200004F0290935002A0935102B0935202BF91AB
:10121000AF919F918F913F912F910F900FBE0F90A3
:101220001F90189526E8230F0296A11DB11DD2CF5D
:101230001F920F920FB60F9211242F933F934F934B
:101240005F936F937F938F939F93AF93BF93EF932E
:10125000FF9382EB91E00E94F800FF91EF91BF9124
:10126000AF919F918F917F916F915F914F913F913E
:101270002F910F900FBE0F901F9018951F920F92F5
:101280000FB60F9211242F938F939F93EF93FF9399
:10129000E091C201F091C3018081E091C801F09119
:1012A000C90182FD1BC090818091CB018F5F8F733C
:1012B0002091CC01821741F0E091CB01F0E0EE5497
:1012C000FE4F958F8093CB01FF91EF919F918F916E
:1012D0002F910F900FBE0F901F9018958081F4CF23
:1012E000CF93DF93CDB7DEB7CB5DD1090FB6F894BE
:1012F000DEBF0FBECDBF789484B5826084BD84B557
:10130000816084BD85B5826085BD85B5816085BD00
:1013100080916E00816080936E00109281008091B8
:101320008100826080938100809181008160809340
:101330008100809180008160809380008091B10065
:1013400084608093B1008091B00081608093B00090
:1013500080917A00846080937A0080917A00826024
:1013600080937A0080917A00816080937A008091E6
:101370007A00806880937A001092C10082EBE82E98
:1013800081E0F82EE091C201F091C30182E08083F8
:10139000E091BE01F091BF011082E091C001F09197
:1013A000C1018FEC80831092CA01E091C601F091D7
:1013B000C70186E08083E091C401F091C50180817E
:1013C00080618083E091C401F091C50180818860D3
:1013D0008083E091C401F091C501808180688083A1
:1013E000E091C401F091C50180818F7D80838E01E1
:1013F000075F1F4F1C830B8388EC90E09E838D83D7
:101400008EE591E09A83898384E090E098878F83CA
:10141000CE0101969A8789871C861B8684E190E01D
:10142000CF52DF4F99838883C15DD040AE014F52C8
:101430005F4F66E971E0C8010E945D0882E390E0B9
:10144000CF52DF4F99838883C15DD040AE014F52A8
:101450005F4F62EA71E0C8010E945D08CF52DF4F22
:10146000F982E882C15DD040CD52DF4F19821882E7
:10147000C35DD040BE016F527F4FC8010E94CD06B0
:10148000DE01A752BF4F1196FC92EE9212968C91FC
:10149000129780788062806812968C931297FE0172
:1014A000EB52FF4FB283A18310821382CF52DF4FE2
:1014B000F983E883C15DD040CD52DF4F1982188295
:1014C000C35DD040BE016F527F4FC8010E94AA0485
:1014D0006AEA71E0C7010E944A0664E671E0C7014A
:1014E0000E944A0600E010E001151105E9F30E9490
:1014F000E4008823C9F30E940000F6CFE2EBF1E09C
:101500001382128288EE93E0A0E0B0E0848395839A
:10151000A683B7838CE491E09183808385EC90E08F
:101520009587848784EC90E09787868780EC90E0AD
:10153000918B808B81EC90E0938B828B82EC90E09E
:10154000958B848B86EC90E0978B868B118E128E18
:10155000138E148E08955058BB27AA270E94C30AE1
:101560000C94C40B0E94B60B38F00E94BD0B20F007
:1015700039F49F3F19F426F40C94B30B0EF4E09564
:10158000E7FB0C94AD0BE92F0E94D50B58F3BA176B
:10159000620773078407950720F079F4A6F50C9489
:1015A000F70B0EF4E0950B2EBA2FA02D0B01B9010D
:1015B00090010C01CA01A0011124FF27591B99F0C9
:1015C000593F50F4503E68F11A16F040A22F232FD5
:1015D000342F4427585FF3CF469537952795A79525
:1015E000F0405395C9F77EF41F16BA0B620B730BCC
:1015F000840BBAF09150A1F0FF0FBB1F661F771F3D
:10160000881FC2F70EC0BA0F621F731F841F48F4F1
:10161000879577956795B795F7959E3F08F0B0CF7A
:101620009395880F08F09927EE0F97958795089561
:101630000E94890B08F481E008950E94DD0B88F078
:101640009F5798F0B92F9927B751B0F0E1F0660F86
:10165000771F881F991F1AF0BA95C9F714C0B130C7
:1016600091F00E94F70BB1E008950C94F70B672FEF
:10167000782F8827B85F39F0B93FCCF386957795F6
:101680006795B395D9F73EF49095809570956195DF
:101690007F4F8F4F9F4F0895E89409C097FB3EF40A
:1016A00090958095709561957F4F8F4F9F4F9923AF
:1016B000A9F0F92F96E9BB279395F695879577952D
:1016C0006795B795F111F8CFFAF4BB0F11F460FFED
:1016D0001BC06F5F7F4F8F4F9F4F16C0882311F045
:1016E00096E911C0772321F09EE8872F762F05C059
:1016F000662371F096E8862F70E060E02AF09A95F4
:10170000660F771F881FDAF7880F9695879597F9E8
:101710000895990F0008550FAA0BE0E8FEEF161682
:101720001706E807F907C0F012161306E407F507D5
:1017300098F0621B730B840B950B39F40A2661F049
:10174000232B242B252B21F408950A2609F4A140EC
:10175000A6958FEF811D811D089597F99F6780E8F9
:1017600070E060E008959FEF80EC089500240A94F3
:101770001616170618060906089500240A9412166C
:101780001306140605060895092E0394000C11F49F
:10179000882352F0BB0F40F4BF2B11F460FF04C04C
:1017A0006F5F7F4F8F4F9F4F089557FD9058440FA5
:1017B000551F59F05F3F71F04795880F97FB991FB0
:1017C00061F09F3F79F0879508951216130614066D
:1017D000551FF2CF4695F1DF08C0161617061806FA
:1017E000991FF1CF86957105610508940895E894D5
:1017F000BB2766277727CB0197F908950E94890BAD
:1018000008F48FEF08950E94160C0C94C40B0E94EC
:10181000B60B38F00E94BD0B20F0952311F00C940C
:10182000AD0B0C94B30B11240C94F80B0E94D50B48
:1018300070F3959FC1F3950F50E0551F629FF00123
:10184000729FBB27F00DB11D639FAA27F00DB11D3C
:10185000AA1F649F6627B00DA11D661F829F2227C5
:10186000B00DA11D621F739FB00DA11D621F839F4C
:10187000A00D611D221F749F3327A00D611D231F22
:10188000849F600D211D822F762F6A2F11249F5770
:1018900050409AF0F1F088234AF0EE0FFF1FBB1F73
:1018A000661F771F881F91505040A9F79E3F510532
:1018B00080F00C94AD0B0C94F80B5F3FE4F3983E72
:1018C000D4F3869577956795B795F795E7959F5FDC
:1018D000C1F7FE2B880F911D9695879597F908956E
:1018E00097FB072E16F4009407D077FD09D00E94CD
:1018F000AC0C07FC05D03EF4909581959F4F089560
:10190000709561957F4F0895A1E21A2EAA1BBB1B0B
:10191000FD010DC0AA1FBB1FEE1FFF1FA217B307BB
:10192000E407F50720F0A21BB30BE40BF50B661FD1
:10193000771F881F991F1A9469F760957095809595
:1019400090959B01AC01BD01CF010895EE0FFF1FE3
:101950000590F491E02D0994AA1BBB1B51E107C02F
:10196000AA1FBB1FA617B70710F0A61BB70B881F2F
:10197000991F5A95A9F780959095BC01CD010895BE
:10198000FB01DC018D91019080190110D9F3990BB5
:061990000895F894FFCF5A
:101996000000803FCDCCCC3D6F12833A95BFD63345
:1019A6007D1D9026B3CE010CCDCCCC3D0AD7233C71
:1019B60017B7D13877CC2B329595E6241FB14F0A4D
:1019C600000020410000C84200401C4620BCBE4C1E
:1019D600CA1B0E5AAEC59D74000000001A017A009B
:1019E600A7006701D800B600CA00000000005F002B
:1019F6003A20002C0D0A0022225C5C6208660C6EFE
:101A06000A720D7409006E756C6C0074727565004F
:101A160066616C7365004E614E00496E66696E695B
:101A2600747900652D0054656D7065726174757208
:101A3600610048756D656461640041726475696E24
:021A46006F002F
:00000001FF
